:020000041000EA
:1000000000B5324B212058609868022188439860DF
:10001000D860186158612E4B002199600221596106
:100020000121F02299502B49196001219960352056
:1000300000F044F80222904214D00621196600F024
:1000400034F8196E01211966002018661A6600F04E
:100050002CF8196E196E196E052000F02FF8012189
:100060000842F9D1002199601B49196000215960AB
:100070001A491B48016001219960EB211966A021F2
:10008000196600F012F800219960164914480160C1
:100090000121996001BC002800D000471248134993
:1000A000086003C880F30888084703B5996A0420EC
:1000B0000142FBD001200142F8D103BD02B5186610
:1000C0001866FFF7F2FF186E186E02BD00000240BE
:1000D000000000180000070000035F00212200005C
:1000E000F4000018222000A00001001008ED00E03C
:1000F00000000000000000000000000074B24E7A12
:1001000000200420F7010010C3010010C5010010F9
:10011000C1010010C1010010C1010010C101001097
:10012000C1010010C1010010C1010010C701001081
:10013000C1010010C10100102D4E0310CB010010B1
:10014000CD010010CD010010CD010010CD01001037
:10015000CD010010CD010010CD010010CD01001027
:10016000CD010010CD010010CD010010CD01001017
:10017000CD010010CD010010CD010010CD01001007
:10018000CD010010CD010010CD010010CD010010F7
:10019000CD010010CD010010CD010010CD010010E7
:1001A000CD010010CD010010CD010010CD010010D7
:1001B000CD010010CD010010CD010010CD010010C7
:1001C00000BE00BE00BE00BE00BE00BEEFF3058054
:1001D000103800BEF2EB887130480D10EC480D105D
:1001E0003802001090A31AE71E481F49086006C88D
:1001F00081F3088810471D480068002801D019487D
:10020000F3E70DA40ECC002902D000F012F8F9E7B4
:100210001749184A002000E001C19142FCD116495B
:100220008847164988471649884700BEFDE701C937
:1002300001C29A42FBD37047EC480D10C000002069
:10024000D0180020FC600D100000042000000420E5
:10025000FC600D10001004200010042000000000BD
:10026000704700000000000008ED00E0000000D032
:10027000D01800209CCA002035120710C945031071
:100280002D120710F8B5C0460448054B10B583423F
:1002900003D0044B002B00D0984710BDD01800208D
:1002A000D01800200000000006480749091A8B10EA
:1002B000C90FC91810B5491003D0044B002B00D04A
:1002C000984710BDD0180020D01800200000000072
:1002D00010B5074C2378002B09D1FFF7D5FF054B4C
:1002E000002B02D0044800E000BF0123237010BDA2
:1002F000601A002000000000B83C0710054B10B544
:10030000002B03D00449054800E000BFFFF7CCFFF5
:1003100010BDC04600000000641A0020B83C071061
:10032000030010B51000540C520892B2002904D0FA
:10033000C00702D40C481AF0FDFD944206D19C423D
:1003400010D0220009490A4819F00CFE9C4204D939
:1003500008490748E21A19F005FE9A4202D20649F6
:100360000348F1E710BDC046B83C0710E03C071059
:1003700048680710193D07104B3D0710F0B50025E0
:100380002F0087B00C9C0D9E029004910392059360
:100390000195059B9D4206D1019B029A934238D25A
:1003A00020481AF0C7FD029B9D4211D263889B052D
:1003B000F6D4019B049A01330193AB00D058FF227D
:1003C00063881340012B1ED10EF086FE307013E0BF
:1003D000022321880022C900039819430AF0B8F9C2
:1003E00000280DD16388DB0504D522880E490F480B
:1003F00019F0B8FD63683360013508340436C8E786
:1004000040680137DBE7022B01D10EF015FD3060AB
:10041000F2E7039B1B68DB08BB4201D90448C0E735
:1004200007B0F0BD913D07107A3D071048680710EE
:10043000B23D071070B515001E00040086B08200A2
:10044000AA1803A80AF058F90B9B290001930A9BEC
:100450002000009303AA3300FFF790FF06B070BDA1
:1004600010B501481AF088FDD03D071010B5040002
:10047000016188000AF0D0F8606110BD10B5040079
:10048000002902D0C0680AF0FBF860690AF0F8F8A9
:1004900010BD70B504000D0001290BDC01210269BB
:1004A0004942406992006FF0A3FE002325706370FB
:1004B000636070BD40680AF0AFF86368E060A360F5
:1004C000F3E730B5030044780020844208D11D785A
:1004D00020005A68022D01D1D86880188918596007
:1004E00030BD002343700378012B03D84268436971
:1004F0008900CA50704742684B1E9B1849421940F8
:100500004160704770B50C001500FFF7DAFF041961
:10051000002803D170BD05702D0A0130A042FAD128
:10052000F8E710B50C000221FFF7CBFF002802D03E
:100530000470240A447010BD70B50500012909DC5F
:1005400000290ADB1349FFF7ECFF0026F223EE61D6
:10055000AB6170BD8B1E012B10D901230239994369
:100560000C000E0028000C49FFF7DBFF7F2C0BD896
:100570000A4928002143FFF7D4FF03E00649FFF7AB
:10058000D0FF0026FE23E2E728000549FFF7C9FF58
:100590007F3CEBE7F2B50000FEB5000080B0000044
:1005A000FFB0000070B5C5690400002D07D07F2D95
:1005B0000DD8B021090220002943FFF7B2FFBD2169
:1005C000A369090220001943FFF7ABFF70BD2000AB
:1005D0000249FFF7A6FF7F3DE9E7C0467FB0000074
:1005E000F7B50B02FF270E000193140013120A0245
:1005F00080213B401343890119430500FFF791FF18
:100600008021F3003343890028001943FFF789FF55
:10061000C021019B3C401C43890128002143FFF776
:1006200080FFF7BD70B50D0004211400FFF749FFEE
:10063000002805D0057084702D0A240A4570C47006
:1006400070BD10B5DB0011431943FFF76AFF10BD01
:1006500010B5072A09D8D20007290BD80A438C21E4
:10066000C9011143FFF75DFF10BD083AD3004022D6
:100670001A43F1E7083911438022EFE7F7B5150077
:100680000A0006000C002A43072A11D81F00089A06
:100690009740FF2F0DD8A94202D02A00FFF7D8FFBC
:1006A000C02124023C43890121433000FFF739FF78
:1006B000F7BDCA000192FF2B18D8A94222D00A0226
:1006C0008021134389011943FFF72BFF089B30005A
:1006D00099012143E3001943FFF723FFC021AD0136
:1006E000E3001D43254349012943DEE7A94209D020
:1006F0003A00FFF775FF4823C021634349012343B4
:100700001943D2E7072501236540B421AB40090214
:10071000194330000093FFF704FF29003A0030002E
:10072000FFF75EFFC021019BAD0125431D43490139
:1007300029433000FFF7F5FEBC21009B0902DFE7EB
:100740004369890070B5CC58E0210500436809026F
:10075000E41A043C23055B0D1943FFF7E2FE2B78F6
:100760000120022B08D180231B019C4204D3E40A00
:10077000E402E0184342584170BD70B50500002006
:1007800083421BD1FF266B699200D4586B68090223
:10079000E41A043C631033400B43D02109022800C3
:1007A0001943FFF7BEFE2B780120022B06D1B4427D
:1007B00004D9B4430134FF346042604170BD4369E1
:1007C000F822890070B5CC58F02105004368120268
:1007D000E41A043C63109BB21A4363025B0D0902E6
:1007E0001943FFF71FFF2B780120022B08D180232C
:1007F000DB039C4204D3A40DA405E01843425841F6
:1008000070BD0000F8B5476804000E001500BB0776
:1008100003D5BF210902FFF784FE90213602C901EA
:1008200031432000FFF77DFE20000649FFF779FEE7
:10083000A9B22000FFF775FE2000290CFFF771FE1A
:100840003800F8BD01E00000F0B507000D0016000B
:1008500085B0072939D8FF2A08D80D028021154311
:1008600089012943FFF75DFE05B0F0BDD30F029368
:10087000D317D4185C4020006BF0AAFA0390200034
:100880006BF0ACFA0190019A039B94466344172BDA
:100890002BD9144180212B02E4B21C43890138007A
:1008A0002143FFF73EFE019BE90029439B013800ED
:1008B0001943FFF736FE029B002BD5D02B002A00F0
:1008C00038001349FFF7BDFECEE7D317D4185C40BC
:1008D00020006BF07DFA0390002E02D0F30F0293FC
:1008E000CDE7340002960196CDE780235B029C425F
:1008F00005DA220029003800FFF772FEDBE7002E40
:1009000000DA6442220029003800FFF77BFFABE7E2
:100910004042000010B50378012B04D9FF2902D909
:1009200005481AF029FBC9B212020A4390210902B4
:100930001143FFF7F6FD10BD0E3E071010B503780A
:10094000012B04D9FF2A02D905481AF015FB982378
:10095000D2B2090211431B021943FFF7E2FD10BD99
:100960000E3E0710A82310B5D2B2090211431B0294
:100970001943FFF7D6FD10BD43699200D358426872
:1009800070B59B1A01221A430C3A0C000500FFF7C0
:1009900027FEB2212800230022000902FFF751FEA2
:1009A000802223011340793A14400349234328004D
:1009B0001943FFF7B6FD70BD7844000037B50D0050
:1009C0000400114307290CD81F2B0AD8D021D200CC
:1009D0002A439B011A43C90111432000FFF7A1FDDF
:1009E00037BD02211F3B009120002900FFF746FE82
:1009F0000249EB002B431943EFE7C046C06F0000EC
:100A00004369890010B5CC584168611A0439631CE8
:100A10000ED0CB1C0CDA124ACB0ADB02934217D160
:100A200009054B0DE02109021943FFF77AFD10BDBE
:100A300080231B019942F3D3094ACB0ADB0293427C
:100A4000EED0BF210902FFF76CFD0134EFD003E0C7
:100A5000BF210902FFF765FD02481AF08DFAC04672
:100A600000F8FFFF303E0710436970B51500920093
:100A7000D25843680400D31A043B0902013211D052
:100A8000DA1C0FDAFF221E000D489643864209D178
:100A90005B1013400B43D021090220001943FFF7DC
:100AA00040FD70BD80235B004B40D0210902200037
:100AB0001943FFF736FD29002000FFF7A1FFF0E7FB
:100AC00000FFFFFF043A52100902D2B20A43D021BC
:100AD00010B509021143FFF724FD10BD04390B05C1
:100AE000E02110B55B0D09021943FFF71AFD10BD97
:100AF00070B514000B00072221000500FFF75EFF10
:100B00008F21E400C90128002143FFF70AFD70BDD1
:100B100073B50B0069464C1D21007F261500013C72
:100B200035402570D209F9D1091B984700280AD011
:100B300080260200230001AD7642AB4204D16A4612
:100B400012791B1BC25473BD1978013331431170E4
:100B50000132F2E7030030B502687F2400201178EB
:100B6000C0010D0049B22540013228430029F6DBBF
:100B70001A6030BD07B5019001A8FFF7EBFF0EBD6D
:100B8000037801307F2BFBD870470000F0B593B09D
:100B90000A930368099204938389070008934368C2
:100BA0000C005A1C426003221B7804201A40009259
:100BB00000220121160084460292019278685BB2FD
:100BC000451C002B1DDB062200233F25944607937E
:100BD0000B937A680120511C796012781100014052
:100BE00099400798084307906046584351102940A0
:100BF00081400B9852B208430B90002A1BDA013354
:100C0000E7E77D600378009D981108409040064317
:100C10006046184090400543D81008409040009529
:100C2000019D05431800084090400195029D013246
:100C300005430295C2E70021BB68F981059304339F
:100C40000393089B03989B001A0006936FF0D0FA59
:100C5000009A089B9B1A019A0D939D1A013D039BD4
:100C6000AD005D190423009A3340A24200D370E026
:100C7000002B04D123009B499B4819F073F92B1FCB
:100C80000C93009B99000A9B5918009BE01A15F0E1
:100C900083FE009B28600C9D0A9A059906989B008C
:100CA00009189B189A4200D080E00823099A334023
:100CB0000E931A430223002A00D1F7E032001A40B3
:100CC0000F9200220C921E4204D009980FF0CAFE27
:100CD0000C9028600A9BA4001C1900230A930A9B0D
:100CE000099A934266D10D9B029A9D00039B049939
:100CF00003325B19920088181900029C002C00D066
:100D000099E003990C3A8C469B18069A62449A42E1
:100D100000D999E07868FFF733FF0026009B119017
:100D2000B34200D09AE0059B5D19019BA34200D01D
:100D300098E00B9B7D68ED182E00079BEB18009345
:100D4000009BB34200D0BFE0079BED187D6013B05D
:100D5000F0BD002B02D0654B043D6B600823099A5F
:100D60003340134317D1009B029A9A1AA24200D92A
:100D700080E7029B009A1B199B1A049A9B00D318C8
:100D80000699059A0C93501822000C9B04330C937F
:100D9000009B934201D123007EE70C9BD9688C46CF
:100DA00063469100494243500132EEE701CA0439DB
:100DB000486077E77868FFF7E3FE00262568119022
:100DC000009B019A9B18B34205D80F9B002B26D19C
:100DD0004749EA0817E011A8FFF7BCFE0222049B6E
:100DE00040005B689B68C35ADB0013439D4214D1EB
:100DF000089B013B9B1B9340039AD3181A68002A57
:100E000004D03C49EA08384819F0ACF862681A6026
:100E10000A9B083401330A9361E70136D0E70C9B43
:100E20000122181D290009F093FC4368002BE8D12A
:100E300063684360ECE70E68002E01D106680E601F
:100E4000013C0431043859E70433191F09680029AB
:100E500000D05CE7D21A28499210D4E7FFF790FE41
:100E600001365BE711A8FFF775FE049B2A685B68F3
:100E700040009B68C65A002A11D10E9B002B11D04E
:100E80000223F1001943029B049804339B00185875
:100E9000043009F05DFC002804D043682B60013465
:100EA000043D42E7320015490F48ADE7019A002A98
:100EB00002D013481AF03EF81E4200D139E70198DB
:100EC0000FF0D0FD286034E7089B5C1E33780136B4
:100ED000E41A039BA4001C1920680EF07FFF206019
:100EE0002EE7C046E03C07104868071064800710F2
:100EF000753E0710463E0710963E0710C83E071085
:100F0000F83E071010B50468E4684460040010342B
:100F10008460FFF73BFE10BD70B50568EC68AD68F6
:100F20002468002C01D0A4006559040010344560E9
:100F30008460FFF72BFE70BD70B5402834D00FD809
:100F40000225A8433C280BD10124622918D848293E
:100F500009D823002000422934D02800482931D064
:100F6000314819F011FE0B002000493BDBB29840DC
:100F70002E4B18424ED162294FD05129F0D110E0AA
:100F80006439C9B20D29EBD823008B409221490066
:100F90000B423FD11339FF390B4238D124490B4260
:100FA000DED0230008200DE062291ED848290DD884
:100FB000422932D002231800482903D0013B1800EF
:100FC0009942CDD1002A00D0136070BD01230800E2
:100FD0001C004938C0B284401448044222D162291E
:100FE0001CD05129BCD1082318E06439C9B20D299D
:100FF000B6D801238B40922149000B4210D10C49F5
:101000000B42F0D112210B42AAD0022306E02300AA
:101010002800D7E723000420D4E701231800D1E7F4
:101020000423F8E70423F9E71F3F0710C904000071
:101030000120000010B5512812D8412803D80128FA
:1010400023D000231DE042380F28FAD872F0D4FDD7
:101050001DF9F9F9F9F92225F9F925F9F94447318A
:101060006238C3B20F2BECD80F28EAD872F0C4FD57
:1010700008E92DE928E90F37E9E937E9E9E9E91A4B
:101080008B5601205B0018430BE08B5CF9E75200A4
:10109000535EF6E75200535AF3E79200505811F0AE
:1010A000D7F910BDD2008A181068516811F03AF9CA
:1010B000F7E7D20089180868496811F04EF9F0E79F
:1010C0009200505810F05AF9EBE7D20089180868DE
:1010D00049686BF0C5F9F5E792005058E1E79200D6
:1010E000505811F02EF9DCE7F7B507000C00012687
:1010F000002A02D1421E9B18023E00200021002C33
:1011000006D0002200259A56D40F00216042A94142
:10111000002211E0040E00940C0201940402250048
:101120001C780132A4462C0065462C432000009D0B
:10113000019C9B1925432900BA42EBD103B0F0BDB5
:10114000F0B585B0019203AA04000D001F001E68CF
:10115000FFF7F2FE402C09D1039B019A043CB61A1A
:101160005A1EB6185B421E40019B9E195A21331825
:101170003E3C3B60A942894163425C4149423300A5
:10118000E2B2FFF7B1FF020006000F004F2D03D0BF
:10119000532D03D113F0B4FD05B0F0BD652D22D160
:1011A000810583B25004890DFF22C00E1F2802D092
:1011B000021E09D07032D80BC007D2051043490374
:1011C000084310F0DBF8E7E70029F4D0802570240D
:1011D000ED004800220081B2013C2842F9D01748B6
:1011E000091889B2E7E7662DEBD0642D02D16BF0C8
:1011F00037F9E6E75A2D13D980220023D205921938
:101200007B4130001100002B06D180231B06994240
:1012100002D211F096F8BFE7390011F083F8BBE76E
:10122000002906D18023DB05984202D211F010F983
:10123000B2E7390011F091F8AEE7C04600FCFFFFBD
:1012400013B5040001931000002904D1220001A964
:101250006EF0D4FF13BD01AB1B191419A042F9D0D5
:10126000013B197801700130F8E70000F0B589B052
:101270001F000E9B140005AA1D680E000290FFF7C8
:101280005BFE029B0190402B08D1059BED1B5A1E73
:10129000AD185B421D403C237D190293019B0E9AC1
:1012A000EB181360029B3E3B03935F425F41FFB22A
:1012B000652E1AD012D84F2E43D0642E53D0A307D8
:1012C00000D06EE0424B22689A426AD12B0039006E
:1012D0002000019A10F0D0FF09B0F0BD662EEED1CB
:1012E00020000DF0FFFD04002BE020000DF0FAFDC2
:1012F0004402A40DC30400D50134C10DC9B21F239B
:10130000FF2918D00023994215D00B00703B22D53D
:101310000B3325DB80227023D20022435B1A92B26A
:101320001A410121130094B2CC400B400A4202D072
:1013300000236418A4B2C00FC00304439B021C43E3
:10134000A4B20198042800D9042023002A003900FF
:10135000FFF776FFC0E73F2BEDDD1F230024EAE710
:1013600000242300E7E720000DF0BCFD6EF0F8FE3E
:101370001024BB00069007911B1904AA9B18083B78
:101380002A001B6839000420FFF75AFF039B04352D
:101390005A1E93419B001B1904AA9B18083B1C680A
:1013A000CFE720000DF048FD019B0400042BC8D9B5
:1013B0000021884200DAFF312800019A6EF018FF00
:1013C000029B3E2BBDD1019B043BED18B9E7C04603
:1013D000386F071070B50C00712807D8612806D83F
:1013E00001281DD04238C1B20F290DD970BD623815
:1013F0000F28FBD872F000FC14FA25FA1FFA162DFC
:10140000FAFA2DFAFAFAFA190F28EFD872F0F4FB6B
:1014100008EEEEEEEEEE0A21EEEE21EEEEEE210DFE
:10142000A354E3E752001353E0E7D200A21813607D
:10143000DB175360DAE7180095006EF02FFE60515D
:10144000D4E7D20018008C186AF0C6FF20606160F3
:10145000CCE792001351C9E7F7B506000F0014005E
:101460001D0064280DD0662804D04F2813D19400A5
:10147000E35105E0940018000C190DF033FD2060D5
:10148000F7BDD40018000C190DF02CFD6EF068FEAD
:1014900020606160F4E703232A001A4001921D4294
:1014A00010D10D4B2A689A420CD10100019A4020BC
:1014B000FFF742FD44430200019928003B1910F058
:1014C000DBFEDDE728000DF0B7FC22000300390049
:1014D0003000FFF77FFFD3E7386F071037B50C00F8
:1014E00001A9206813F070FF0500606813F0ECFE9E
:1014F00029000023019A09F05FF80500A06813F0A5
:10150000E3FE512807D00C4B984211D0502811D03F
:101510000A4819F039FB0121002328001A0018F0AD
:101520002FFE0749040008200DF0BDFB44603EBDBE
:101530000021F1E70221EFE7E50300002C3F07104F
:1015400024640710F0B587B00192D0221206126809
:10155000344B9200D3581A69DD68944601281BD990
:101560004C68062C15D0A20710D12F4A2668964247
:101570000CD12600022811D08A68062A0ED09007C6
:1015800004D1294817681600874207D0002019F0B7
:10159000D1FC2E001400EDE72E00140003220F688A
:1015A000174222D1214A396891421ED162460595DF
:1015B000049202A81C61DE601D490DF005FB0323A7
:1015C0007868184208D103681A4A934202D01A4A2E
:1015D000934201D143685C6018F0CAFD0400012009
:1015E0000DF000FB200007B0F0BD019B002B0DD1DA
:1015F000380013F069FE08F0ECFF0123019322008C
:101600003300019918F0BCFD0400EBE702A90522A4
:1016100038000DF05FFE0023039A0299DF2008F0E6
:10162000CBFFECE7782000202C670710246407101C
:10163000F59B0110986C0710786C071010B502220A
:10164000FFF780FF10BD10B50122FFF77BFF10BD33
:1016500010B50022FFF776FF10BD70B506000D0033
:1016600000246B68A34200D870BDAB68E200D1587B
:10167000002904D0042902D0300011F009F9013406
:10168000EFE70000F0B587B0002806D1544955486F
:101690000AF09EFE062007B0F0BD0E68524B9E4237
:1016A00057D10021080011F0ECFA50490390FFF7E0
:1016B000D4FF4F490398FFF7D0FF039F4D4E357875
:1016C000002D14D14C4A03A9012011F0D3F903983D
:1016D00005AA04A911F0ECFA049B03339B080193BB
:1016E000019B404EAB4211D130004449D0E730005D
:1016F00071F030FEC11E0400300013F059FA0134BD
:101700000100380011F0C4F83619D8E72F00059B06
:10171000BA00D05813F0EEFD010030000AF058FE78
:10172000019BFF18049B9F420DD212231C1A002C10
:1017300007DD30003249013C0AF04AFE002CF8D1A6
:10174000E5E71234F3E730002E490AF041FE013597
:10175000C6E730000DF0B4FA0400224D2A492800F3
:101760000AF036FE002130000DF0DCFA2800E28895
:1017700026490BF0B5F9264B9C4224D1746800260B
:10178000043463689E4200D384E7A368F2009B1888
:101790001F68002F15D05B681E49280001930AF0CE
:1017A00017FE002138000DF0BDFA1B4928000AF091
:1017B0000FFE002101980DF0B5FA280011490AF03A
:1017C00007FE0136DDE7154B9C4200D13400E37C77
:1017D000002B00D15EE703339B00E4186468CEE77A
:1017E0009C0B0810945B0710721A0000F071071030
:1017F00044710710B44E081094670710703F07102B
:10180000AD2A0D1058280D10943F07109C3F07106B
:1018100094720710AF010810AC3F0710F082071058
:10182000022210B581680348C900114308F090FFF7
:1018300010BDC046C04F002010B51BF0F0FC084999
:101840000822040071F0B4FD01002000002904D139
:101850000A00083007F032FC10BD28F0A7FBFBE7B8
:10186000C03F071010B50400FFF7E6FF02280CD0B8
:1018700061686D22200002391BF03CFD2000FFF75B
:10188000DBFF023843425841400010BD10B5040050
:10189000FFF7D2FF012806D0200003491BF01EFDF0
:1018A0002000FFF7DFFF10BD74440810F0B5D0260C
:1018B000360633682E4D9B005B5987B000AF04009D
:1018C000B9601869BA217A600FF0B4F83368F8602B
:1018D0009B005B59002218692649043008F038FF44
:1018E00014230500F918F86813F06EFD6A1E95417F
:1018F00001007B69641BC318002C05D199420BD1F0
:101900001D491E4818F024FB9942F7D2013B1A7872
:101910002E2AF9D1013CEFE76A465E1A7B681B6804
:10192000F418FB60631C3B600733DB08DB00D31A51
:101930009D466D46320028006EF060FCFB68002B6F
:1019400009D02E23AB55BB6801361968FA68A8196F
:101950006EF054FC3C682100280017F075FD17F06C
:1019600056FEBD46BB6818607B681C6007B0F0BDC2
:10197000782000200A100000C93F0710D469071022
:1019800030B5D3000D000222FF2185B01A43490073
:10199000040018F04FFDD022120612680C4B920082
:1019A000D35861681A6968460292DA68196103922D
:1019B000D96008490DF008F900222100280003F041
:1019C000A1FF18F0D5FB01200DF00CF905B030BDDA
:1019D00078200020F59B0110F0B5050085B00800C7
:1019E0000F001BF01CFC08222249040071F0E0FCEF
:1019F000002819D1260008366A46300001A907F0F0
:101A00005DFB019B022B0FD1009C2B0022000833B1
:101A100003CA03C3300017F0DFFD02002800A168ED
:101A2000FFF7AEFF05B0F0BD200017F0D5FD7B68D5
:101A30000600E418033C23786D2B07D102A9029518
:101A400017F074FC320003990298E9E708F0C1FD31
:101A50000222FF21040003684900DB0028001A432A
:101A600018F0E8FC6A6801211300200018F088FBD8
:101A7000D8E7C046C03F0710F0B50300B3B0086810
:101A8000032B0AD9CA680392042B1DD00B695C1082
:101A9000002B1EDA002019F077F805A913F094FC4A
:101AA000062306900393059B002BF3D00027012605
:101AB0003D000297059BB34217D2039B062B00D033
:101AC0000295029833B0F0BD05A913F07DFC069095
:101AD000E9E705A913F078FC0690002CE3D020007C
:101AE00005AA06A9FFF7E2FEDDE7069CB34202D095
:101AF000A35D2E2B23D13100200017F0A5FCF11B94
:101B00000190E01917F0A0FC584B009008AA186843
:101B100007A90DF03BFA079B002B12D0019B002276
:101B2000D90002235248194308F012FE002808D0B9
:101B30004468029B002B00D102942500771C0136DB
:101B4000B8E7802112AA0EA81BF00FFB002D3BD195
:101B50002900009811F07EFA041EEAD1434B0AAA2C
:101B6000186809A90DF012FA2C00099B9C420AD3AF
:101B70000121009811F06EFA041EDAD13D493E4869
:101B8000019A18F0EFF900230A9A0F93A3009858CE
:101B90000BA913F019FC0B9A0100002A06D00EA81D
:101BA0001BF0A4FA2F210EA81BF04FFB009817F092
:101BB0002EFD01000EA81BF091FB0EA8FFF766FE9C
:101BC000071E1FD10134D0E728002C490BAA18F0BA
:101BD0003DF90B980028D1D013F08CFB01000EA822
:101BE0001BF07CFB2F210EA81BF02FFB009817F099
:101BF0000EFD01000EA81BF071FB0EA8FFF746FEBC
:101C0000071EBBD0019811F003FA019B04001C4988
:101C10000BA80D930CF0D8FF012F22D10F9910982B
:101C200012F0C6FF15490200200018F003FC0EA8B0
:101C300014490F9F1BF052FB0EA8FFF713FE02285A
:101C400003D120000EA9FFF7C7FE0F97002D04D087
:101C500022002800009918F0EDFB00200CF0C2FFD4
:101C600067E720000EA9FFF7B7FEEFE7305000202E
:101C7000C04F0020E73F0710D469071001020000A1
:101C8000211800104B410810036A1B8B012B02D056
:101C9000C3685918C160704710B50400836A406A70
:101CA0009B6F9847238B226A01339BB22383918CCD
:101CB000994200D2938410BD10B50400038B013B00
:101CC0000383836A406A0833DB6F98470121200051
:101CD000FFF7DAFF10BDF0B589B004000D000592E2
:101CE0000693002B03D00823CA8A1343CB823022E9
:101CF000059BEB83236AD98A0A43DA821B78002B7F
:101D000044D1A36A2900B4331E68059A069B606A11
:101D1000B04709B0F0BDD26AF300D118D35C079187
:101D2000053B012B1FD8002318E0049BEA6ADB0067
:101D3000D018D35C062B0FD1079B59684368994292
:101D40000AD1079B606A5A88A36A1B691F00002397
:101D5000B847039B01330393049B013304932B8DFA
:101D6000049A9342E1DC0136226A138DB342D2DC3D
:101D7000039AA36A606A002AC3D0069AB833009215
:101D80001C682900059B039AA047C2E7002603961A
:101D9000EAE710B50400836A002188331B68406AB3
:101DA0009847A36A606A0F211B6B9847A36A606A11
:101DB000CC331B680121984703212000FFF764FF03
:101DC00010BD70B50400836A00225B6C406A9847BE
:101DD000A36A606AC0331D6800231A001900A8476F
:101DE0002000FFF7D6FF70BD10B5836A8968002216
:101DF0001B6D406A0909984710BD10B5836A896850
:101E0000DB6B406A984710BD10B504000800110054
:101E10001A0019F023FA236A436000238360E36900
:101E2000002B01D1E06110BD1A009B68002BFBD193
:101E30009060F8E7F0B58BB0040000AF00294FD0F8
:101E40008B0757D14B680D00DBB2682B05D00F23F1
:101E50000B40022B54D1090943E0CB681B091360E6
:101E60008D68002D3CD00F232B40022B46D0012340
:101E70002E007B606B687D611B0AFB60013BFB6190
:101E8000FB689B005B193B603B689E423DD16A4604
:101E9000FB690733DB08DB00D31A9D46BB603B615F
:101EA0000023BB61BB699A002B0008339858242398
:101EB0000009F91817F0B5FB7E6A01003200386995
:101EC0006EF09CF93B699E19BB690133BB61BA692D
:101ED000FB68934222D0731C3B612E233370E1E7F1
:101EE00001211160A36A0022DB6A606A9847BD463F
:101EF0000BB0F0BD0F230D000B40AAE72909F1E755
:101F00008B681B0913600023B2E7B0680436000930
:101F100017F074FBFB691B18FB61B5E7F969B8683A
:101F200017F092FAA36A0100DB6A0022606A984700
:101F30007B68002BDBD07B693A6804337B6193427A
:101F4000D5D07B6900229968A36A606A1B6D090974
:101F50009847F0E7002906D0032382680B4013431B
:101F600001D10B6883607047F7B507000C001E00B5
:101F700000290DD003230D001D40194211D14B68DB
:101F8000D9B291420DD11B0A0193019B9D4200DB06
:101F9000F7BD2300AA00083338009958B04701352F
:101FA000F3E721003800B047F2E70000F8B50F0072
:101FB00011001A000023040085780669837003610C
:101FC0000F4BFFF7D1FF6368002B18D1618A0029FE
:101FD0000BD0228A002A08D1A36A606AA0331B684A
:101FE0009847A36A606A1B6C9847238A39002000CF
:101FF000628AFFF770FE6B1E9D412661A570F8BDD9
:10200000F92B001070B5437804000D00012B06D1A8
:10201000036A0A001B8B0221FFF7F6FE2861AA68FB
:1020200029694C232000FFF7C1FF70BD70B5130074
:10203000427805000C00012A04D10A000721FFF7AD
:10204000E3FEA061A669280031004623E268FFF79D
:10205000ADFFB08A70BD000010B59D22024B8968AB
:10206000FFF782FF10BDC046E530001010B56B22AF
:10207000024B8968FFF778FF10BDC0465949001030
:10208000436870B50D0004001100002B07D104480F
:102090000EF09EFF290060602000FFF75BFF70BD1F
:1020A00090680710F0B50D000162002142702B7896
:1020B00091B0049204008D4AC160072B2DD1049B7E
:1020C000012B05D0036B021D1B680499C06A984759
:1020D0006378EF68032B10D1380046210FAA0C302B
:1020E00016F070FA236B01009B680F9AE06A98471C
:1020F00063686883002B00D0B9E03969002946D0B5
:102100000F230B40022B3ED10B09752B42D009D86F
:102110003E2B41D05E2B3AD0754A2000FFF7B0FF2E
:1021200011B0F0BD0320734A07909342F4D17B694C
:1021300019210DAA0CA80C9316F044FA00230A905A
:102140000893089B0A9A934228D16378012B16D9E9
:10215000236B07995B68E06A98476378042B0ED17C
:10216000079B206AE26A0393438B052102930023B5
:102170000193009393680069D26803F0B0FB636831
:10218000002B74D1CCE720005B4AFFF779FF0223D4
:102190000793CCE70023FBE70123F9E7089B9B00AB
:1021A0000693069A0D9B9958FF224B681340082B03
:1021B00002D1089B0133C3E7052B01D04F4AACE79E
:1021C000CB68002BFAD1FF208B685A6802402C2A7A
:1021D000F4D19E681D3A3240022AEFD1DD68002D0D
:1021E000ECD0AB07EAD16B680340302BE6D1280076
:1021F000A4210EAA083016F0E5F9414B36090590E6
:102200009E421CD1012805D10F210E9A13680B4064
:10221000022B04D03B4A0D9B069959587DE7E16893
:102220004B1CE360049B012B1DD01268236BE06AFA
:10223000DB6812099847002815D1334AEBE7334B86
:102240009E4217D1059B012B04D10E9B1968059B5B
:10225000194201D12E4ADEE7049B012B03D0E06A2C
:102260004910FEF748F96368002BA2D02F003B68A5
:10227000A36055E79D239B009E4229D1059B012B1E
:1022800006D90E9B01221B681E001640134201D185
:10229000204AC0E7049A012AE5D05B100B930E9AFE
:1022A000B30098580FA915F005FF002801D11A4A6C
:1022B000B1E7E36A0F98099310F0EDF80B9902006B
:1022C0000998FEF71FF9059B0136B342E7D1CAE72B
:1022D000049B012BC7D0236B31001B69059A9C46D8
:1022E000E06A66460E9BB047BDE7C046084007104F
:1022F0002C4007102B0400003940071061400710E4
:102300001903000084400710A040071021020000BC
:10231000B0400710CC400710F140071010B5024A3A
:10232000FFF7AEFE10BDC046134107104B6870B5F5
:10233000DBB20400092B10D1858A094B9D4203D1E1
:102340002000084AFFF79CFE638B228B2900D21ADB
:10235000A36A606A5B6F984770BDC58AEDE7C046A7
:10236000FFFF00003041071070B5050000290FD0B5
:102370000F230B40022B0DD10C0920000CF0DCFBCD
:10238000002806DA2200054905480EF0ABFE686019
:10239000002070BD034AFFF773FEF9E750410710B4
:1023A000246807104040071070B5140005000E00A7
:1023B0001278002B13D0002A07D0032A05D0104A28
:1023C00031002800FFF75CFE08E0032626706168F4
:1023D000286A18F0A1FF002800D0067070BD002AFE
:1023E0000AD1012323702100006A18F09EFF237890
:1023F000044A012BF2D1E3E7062AEFD0024ADFE7D5
:1024000062410710814107109F410710F0B54378E2
:1024100004000D0085B0012B11D14B68DBB21A000E
:10242000103A51424A41D2B20192102B09D0036AAC
:102430001B78002B05D129000F4AFFF721FE05B0BC
:10244000F0BD28006D2103AA083016F0BBF8002665
:102450000700B742F3D0039BB200D158206A002294
:10246000090918F038FF29000200019B2000FFF73E
:102470009BFF0136EDE7C046C04107109C46022392
:10248000F7B50400006A0192C68A0D001E4205D00D
:10249000354A29002000FFF7F3FDF7BD0F22114058
:1024A000022918D1A378002B11D0838B01338383A9
:1024B00000272909012300930029EED0002218F0FB
:1024C0000AFF03780600002B37D0284AE1E7438B48
:1024D00001334383ECE76968019BC9B22F0099423D
:1024E0000CD1A378A968002B04D0838B013383839C
:1024F0000909DFE7438B01334383F9E7614515D1D0
:10250000A378002BC4D10121A170A9680029C4D0EF
:1025100004273E430A40C682022A03D1F9401F0025
:102520000323C8E70F0089680909F9E70223A968AE
:102530003343C38209090523BDE704230370009BCD
:102540004370236A1B8B032BA7D1019B482BA4D17B
:10255000002FA2D02000F968FFF706FF0301707872
:102560001843707099E7C046E5410710F441071021
:1025700010B549234822FFF781FF10BD10B54F2346
:102580004E22FFF77BFF10BD10B50B004178026AA9
:10259000012904D11900100003F05FF910BD816A10
:1025A000406A203103F069F9F8E710B50400627859
:1025B0000B00006A012A02D118F08DFE10BDA16A3D
:1025C00002001031606A03F058F9F7E770B50500B2
:1025D0000C1E1AD0CB0705D5836A49105B6B686A5D
:1025E000984712E08B0714D00F2309092340022BD0
:1025F00009D0062B0AD0052907D0836AC9B21B6B04
:10260000406A984701E0FFF7D0FF70BD836A9B6B7B
:10261000E5E7836A0968DB68406A98476368034AAC
:10262000DBB29B00210028009B58D9E71C4407100F
:10263000F0B505000C001700032685B001932000BB
:1026400015F062FD002807D0002F0CD1AB6A01996C
:102650009B6E686A984706E0200015F05AFD002836
:1026600003D0002FF2D105B0F0BD002C43D034428E
:1026700041D163681A0A0292FF2213401E2B1AD11D
:10268000002F1CD0029B9E003619B442EBD0A168EB
:102690003A002800019BFFF7CBFF0434F5E7210047
:1026A0000122B00008310958039B28007A40FFF747
:1026B000BFFF013608E01F2B17D1002FE2D0002604
:1026C000EB6803930133EB60029B013BB342E6DC12
:1026D0000299019B0131890009593A002800FFF74E
:1026E000A7FFAB6A03999B6AB3E7202B03D11F3B7B
:1026F000A4685F40A3E721002800FFF767FFAB6AEB
:102700003900DB6E019A686A9847ACE7036A70B5D6
:102710001B780400072B05D0022B03D0144AFFF7C7
:10272000AFFC70BD8D68002D0FD1A36A0F211B6B0C
:10273000606A9847A36A606ACC3300211B68984797
:1027400001212000FFF7A0FAEBE7AB070BD16B6884
:10275000DBB2AF2B07D12000A968FFF737FF2000BD
:10276000FFF717FBDDE729002000FFF72FFFE1E768
:102770000942071070B5437804001500CE68012B9C
:1027800006D1036A0A001B8B2900FFF73DFB70612D
:102790000023200071691A00FFF79DFA2000F168FC
:1027A000FFF714FF062D05D1A36A002188331B68AB
:1027B000606A9847A36A0121BC331D680023606AE0
:1027C0001A00A84770BD70B50D000400C968FFF776
:1027D000FDFEA9682000FFF7F9FE70BD4B6870B5DB
:1027E000DBB204000D00342B11D18968FFF7EEFE37
:1027F000ED68AD68002D10D1A36A0F211B6B606AD4
:102800009847A36A0422A03302211B6819E0836A57
:102810000F211B6B406A9847EBE70326354225D111
:102820006B68DBB29A2B0FD1A36A0F211B6B606A16
:102830009847A968002910D10422A36A0231A03365
:102840001B68606A984770BD9B2B0FD1A968200058
:10285000FFF7BCFEEB689968ECE72000FFF7B6FED7
:10286000A36A0422A03331001B68EAE72900200094
:10287000FFF7ACFEC5E710B504008968FFF7A6FEB8
:10288000A36A0021DB6C606A984710BDF0B58D68C3
:1028900087B004000292002D09D1002A26D002221E
:1028A0002900836AA0331B68606A98471EE00327EB
:1028B0002B003B4001933D4200D08EE0FF266B6829
:1028C0003340372B14D1029B002B06D0836A02229F
:1028D000A03301211B68406A984720002900FFF7B8
:1028E00075FEA36A606AA4331B68984707B0F0BD01
:1028F0009F2B72D1E86843683340A12B5DD1A221A0
:10290000083005AA15F05EFEA9680390002927D0BB
:10291000394225D14B683340372B21D1029B002B04
:1029200006D0A36A411CA03302221B68606A984744
:102930002000A968FFF74AFEA36A606AA4331B68F7
:1029400098470126FF27019B039A93420DD1002E41
:10295000CCD11900A36A0322A0331B680131A3E77D
:102960002000FFF733FE0026ECE7019A059B92005A
:10297000D15800290DD0032319420AD14B683B409E
:10298000372B06D12000FFF721FE002E0CD1184A6C
:1029900005E02000FFF71AFE002E0AD0154A290094
:1029A0002000FFF76DFBA1E7A36A606AA4331B68F0
:1029B0009847019B01330193C5E7AB68002B06D014
:1029C0003B4204D15B6804223340372B00D0052200
:1029D00029002000FFF7CEFE88E729002000FFF73E
:1029E000F5FDA36A0322A03301211B685CE7C04602
:1029F0003F4207102242071010B50122FFF746FFA1
:102A000010BD70B50D00C9680400FFF7DFFDAB68AD
:102A100002211B09DBB2332B01D03F3BD9B2A36AA1
:102A2000606A98331B68984770BDF8B54F680C0012
:102A3000896805000026FFF7C9FD3F0A0C340236FD
:102A4000B74200DCF8BD61682800FFF7BFFD2168D0
:102A5000AB6A090924399C331B68686AC9B2984774
:102A60000834ECE7F7B54E680D0033000D3BDBB2E0
:102A70008968040001930127FFF7A8FD360AB742D1
:102A800000DBF7BD2B00BA00083399582000FFF790
:102A90009DFDA36A01999C331B68606A98470137C2
:102AA000EDE7F7B54E680D0089680400FFF78EFD6D
:102AB0000023360A0093032E03D9E3680093013301
:102AC000E36001270C3501957B1C9E4221DC032E1F
:102AD0001ED9E568606A6B1CE360A36A29009B6EDF
:102AE0009847A36A00999B6A606A9847A36A012184
:102AF0009B68606A9847A36A606A1B6E9847A36ADE
:102B0000606ADB6D9847A36A29009B6A606A9847F0
:102B1000F7BD019B200059680237FFF757FDB74208
:102B200007DAA36A606A5B6D9847A36A606A5B6EA6
:102B300098470F22019B606A1968A36A0A409C3378
:102B40001B680A2A13D10909CAB20621252A01D015
:102B5000343AD1B29847B74205DAA36A00211B6F15
:102B6000009A606A9847019B08330193ACE7FF2500
:102B70004A682A40852A01D13221EBE78A68072179
:102B8000002AE7D03321E5E710B504008968FFF794
:102B90001DFDA36A032198331B68606A984710BD26
:102BA000F7B54A680E00D3B21E3B59424B410400B0
:102BB0000025C768DBB201937B1CC360130A009336
:102BC000009B9D4205DBA36A39009B6A606A9847B7
:102BD000F7BD3300AA00083399582000FFF7F6FC30
:102BE000009B01359D42EEDAA36A3A001B6F019902
:102BF000606A9847E4E700000F2370B50B400400BB
:102C0000022B12D04B68DBB2492B06D04F2B04D0DD
:102C10004A2B01D0502B03D170BD0123A370FBE7D9
:102C2000482B0DD10D69002D0CD1A378002BF3D1C9
:102C3000638A002BF0D020001C4AFFF721FAEBE753
:102C4000CD68F0E7A3788E68002B27D0238A013364
:102C50009BB22382012B0FD1618AA36A606A00298B
:102C600019D0A03300221B689847A36A0222A03320
:102C700000211B68606A984729002000FFF7A6FC26
:102C8000A36A606A9B6B31099847A36A606AA433A0
:102C90001B689847C0E71B6C9847E6E7638A2900E2
:102CA000013320006382FFF791FCB5E75E42071015
:102CB000F7B504000E00C568CF686B1C0193AB1C10
:102CC0000022B968C3602B00FFF7B2FCB168200096
:102CD000FFF77CFCA36A691C606A9B6E9847A36A35
:102CE0002900606A9B6A98470121A36A606A9B6811
:102CF00049429847F9682000FFF768FCA36A0199E8
:102D00009B6A606A9847F7BDF0B5436985B0039345
:102D1000C668438B771C0293B31CC360038B04000B
:102D20008682C782438388680D0015F0EDF900287C
:102D300021D1E368A86801930133E36015F0E9F954
:102D4000002804D1A36A39009B6E606A9847A36A81
:102D500001999B6A606A98472000E968FFF736FC92
:102D6000A36A39009B6A606A984701222000019B90
:102D7000A968FFF75DFC039B20006361029B296942
:102D80006383FFF723FCA36A31009B6A606A98475C
:102D900005B0F0BDF0B5C36887B001930133C360DF
:102DA000040088680D0015F0AFF9021E20D1E76815
:102DB00020007B1CA968E3603B00FFF739FC200082
:102DC000E968FFF703FCA86815F0A3F900281ED1F5
:102DD0002B69002B02D16B69002B04D0A36A0199E7
:102DE0009B6E606A9847A36A39009B6A606A98473D
:102DF0002800712105AA103015F0E4FB002603908D
:102E0000039B9E420AD120006969FFF7DFFBA36A9A
:102E100001999B6A606A984707B0F0BD059BB200B4
:102E2000D758B86815F070F9021E1BD1E36820006E
:102E300002930133B968E360029BFFF7F9FB2000BE
:102E4000F968FFF7C3FBB86815F063F90028DED115
:102E5000A36A01999B6E606A9847A36A02999B6A6C
:102E6000606A98470136CBE78922F8B5174B920084
:102E70009F5804000D00002F26D1C6680122731C44
:102E8000C36089683300FFF7D3FBA36A1F210122C7
:102E90005B69606A9847E96800290AD02000FFF75B
:102EA00095FBA36A3A00BC331D6801213B00606AB0
:102EB000A847A36A0121C8331B68606A9847A36AC0
:102EC00031009B6A606A9847F8BDC0466C4F00208D
:102ED00070B58D680400002D06D12900836AC833BF
:102EE0001B68606A984770BDAB070FD16B68DBB297
:102EF0005E2B0BD1A968FFF769FBE9682000FFF79B
:102F000065FBA36A0221C8331B68EAE72900200099
:102F1000FFF75CFBA36A0121C8331B68E1E710B52A
:102F200004008968FFF752FBA36A606ADB6D98476B
:102F300010BD0000F8B5036A04001B78072B03D00E
:102F40001B4AFFF79DF8F8BD8D68002D0AD1836AF2
:102F50000F211B6B406A9847A36A606AC4331B68E1
:102F60009847F0E703232A001A401D421ED16B68E0
:102F7000DBB21B2B1AD1C668EF68731CC360B9683B
:102F80003300FFF755FBA9682000FFF71FFBA36A7A
:102F9000606AC4331B689847A36A31009B6A606A01
:102FA0009847F9682000FFF711FBD5E72900F9E7FA
:102FB0008C420710F8B505000C004E68360AB700C1
:102FC000CF19BC4207D1AB6A3100A033686A002236
:102FD0001B689847F8BDA1682800FFF7F7FA04348A
:102FE000EFE7896810B5002906D1836A0A00A0338B
:102FF0001B68406A984710BD4B681B0A022B0CD116
:10300000CB68002B09D09A0707D15B68DBB2AC2BE9
:1030100003D10622FFF7AEFBEDE7FFF7CBFFEAE7B0
:10302000F8B505000E0000244F683F0ABC420FDAD5
:103030003300A200083399582800FFF7C7FA6B68DD
:10304000002B06D00234A4002800A159FEF782FF0D
:10305000F8BD0134EAE710B50400FFF7E1FFA36A09
:1030600022219C331B68606A984710BD70B58D683B
:103070000400002D07D101222900836AA0331B68B8
:10308000606A984718E00322154221D16B68FF213E
:103090001800084092281BD11B0A022B0DD1EB68A7
:1030A000002B0AD0134208D15B680B40AC2B04D133
:1030B00029002000FFF75EFB70BD29002000FFF70C
:1030C000AFFFA36A6968A03301221B68090AD7E72A
:1030D00029002000FFF77AFA0122A36A1100A03329
:1030E0001B68CDE70F23F7B50B4005000C00022B42
:1030F00003D10909FFF748FAF7BD002965D0032776
:10310000394262D1FF224B6813402C2B3BD1896896
:10311000FFF75CFAE668002E57D0310039403E4296
:1031200053D1FF207268330010408E280AD10F005F
:10313000130A0193019B013BBB4211DC019B01334C
:103140009B009B595A68D2B2312A12D12800996843
:10315000FFF73CFAAB6A0221DB6C686A9847CBE761
:103160003300BA00083328009958FFF72FFA0137C7
:10317000E0E7322A29D19968AB6A686A1B6D0909B0
:10318000303A9847B8E72D2B1FD18C68002C1CD003
:1031900062682C3B120A022A0AD1E268002A07D090
:1031A0003A4205D15368FF221340AC2B0DD00123C6
:1031B00062685E1C013B120A93429DD2B300E15843
:1031C0002800FFF78FFF3300F2E721002800024AB2
:1031D000FEF756FF90E7C046A642071010B50B0059
:1031E0004178026A012904D11900100002F035FB70
:1031F00010BD816A406A183102F03FFBF8E7000019
:10320000F0B5032704000D00160085B039420ED03A
:103210000F230B40022B16D109099E43012E03D028
:10322000FFF7DCFF05B0F0BDFFF7BFF9FAE749682B
:10323000FF200B0003402D2B00D18DE009D8062B79
:103240000CD02C2B13D029002000594AFEF718FF70
:10325000E8E72E2B00D196E09D2BF4D1002EF2D181
:103260002A00090A0832200000F00CF9DAE7022AE5
:1032700003D02000A968FFF7A9F9EB680193002BA0
:10328000E1D003230198019A18401A42DBD11700BC
:103290005268FF2113000B408E2B3CD1130A5A1E9B
:1032A00003920290022E19D101339B00DF597B68F3
:1032B0000B40312B78D1A36A606A5B6E9847A36A92
:1032C0000121DB6C24E0029B20009A00019B083363
:1032D0009958FFF77BF9029B01330293029B039AF3
:1032E0009342F0DB1300019A02339B009F587B68E6
:1032F000DBB2312B14D12000B968FFF767F9A36A5C
:10330000012EDDD19B6D606A98470021A36ADB6CBA
:10331000606A984786E7312B02D1022ECBD0EAE7CC
:10332000322B90D1A36A606A012E09D15B6D984758
:103330000022A36AB9681B6D0909606A984771E7A2
:10334000022E03D1A36A606A1B6E9847B968A36A0C
:1033500001221B6D0909F0E7AA68002A00D172E773
:10336000002E00D06FE75168090A022909D1D368FD
:10337000002B06D0980704D15B68DBB2AC2B00D1E0
:1033800061E708326FE7002A00D05CE7A9680A1EEF
:1033900000D168E7394203D14B680340922BE2D059
:1033A0002A00012108325EE7322B00D04BE7C9E743
:1033B000BE420710F7B504000D00C6681F00731C5D
:1033C0000193B31CC360836A31009B6A406A009218
:1033D0009847A36A606A8C331B68711C9847A96878
:1033E00000222000FFF70CFF2D69002D2CD1009941
:1033F0002000FFF7EBF8236A1978A36A06291CD18D
:10340000CC331B682900606A984720000121FEF731
:103410003BFCA36A606ADB6D9847A36A3100606A6F
:103420009B6E9847A36A0199606A9B6A9847A36A52
:10343000606A90331B689847F7BDBA00A8331B68D1
:10344000606A05329847E8E7FF226B681340AD2BAE
:1034500007D1A968330000222000FFF7E9F8ED68E2
:10346000C3E72000E968FFF7B1F8A36A606A883310
:1034700001211B68984729002000009A7B1CFFF758
:1034800099FFCAE7F7B50126050017000C00009167
:1034900001927642002C16D1731C05D1AB6A0099BB
:1034A000AC331B68686A9847009B9C4228D0019AFD
:1034B000A300D1580022A64200D189682800FFF756
:1034C0009FFE0134F0E73968002912D00323194226
:1034D0000FD1FF224B681340222B0AD101360BD1AA
:1034E000009B686A1E1BAB6A3100B0331B68621E0A
:1034F00098470437013CCDE72800024AFEF7C0FD9B
:10350000F7BDC046D9420710F0B585B004001600DB
:1035100001910293002904D10299FFF757F805B0F1
:10352000F0BDC7687B1CC3601568002D2AD003233B
:103530002A001A4003921D4224D16B68DBB27B2B18
:1035400020D1A968FFF742F839002000039AFEF75E
:10355000A3FB2000039AE968FFF752FE0199321D90
:103560002000029B0139FFF7CFFFA36A3900DB6F10
:10357000606A984720000321FEF786FB2000FEF7D3
:103580009BFBCCE729002000FFF720F82000002259
:103590003900FEF781FBA36A606ADB6D9847DDE7BF
:1035A00037B5050008000C0001AA7A21083015F093
:1035B00009F8E3680100019A2800FFF7A5FF37BD6D
:1035C000F0B58A680D00CB680F2104008BB00A406B
:1035D000022A00D002E1002B00D1FFE003273B428A
:1035E00000D0FBE0FF205A6802402C2A00D0F5E012
:1035F0009A681140022900D0F0E012097C2A00D01C
:10360000ECE0DA6853680340302B00D0E6E09368C2
:10361000A23109AA08A8089314F0D4FF431E022B74
:1036200000D9DBE0099B1A680192012800D1CAE0A9
:10363000022800D1C5E09F68FA0700D4CEE07A10D6
:1036400000D1CBE05E68019B002B08D09B0706D120
:10365000019B5B68DBB2A63B022B00D8BEE0002ECC
:1036600007D0B30705D17368DBB2A63B022B00D8A5
:10367000B4E0AB68320004932B6905936B69E5688D
:1036800003936369A5820793638B0693AB1C029334
:103690006B1CE382238B63832B1DE36001231A40A1
:1036A00002921E4203D131002000FEF78FFF20005E
:1036B0000199FEF78BFFA36A606A9B6EE91C98472D
:1036C000A36AA91C9B6A606A9847A36A606A5B6DDB
:1036D0009847002220000499FFF792FD20000599E9
:1036E000FEF774FFA36A606A9B6A691C98473900F9
:1036F0002000FEF76BFFA36A0E219C331B68606AF3
:103700009847A36A606A9B6AE91C9847029AA36A71
:10371000002A5BD19B6D606A9847A36A606A1B6E42
:103720009847A36A00219C331B68606A002F00DA67
:10373000012100269847A36A0121DB6E606AAA1C5A
:103740009847079B6361069B6383039BB3421ED02C
:10375000A36A606ADB6D9847029BB34203D1A36AF8
:10376000606ADB6D984720000399FEF72FFFE6683B
:10377000606A731CE360A36A31009B6E9847012165
:10378000029B606A5940A36A01319B689847A36A0B
:1037900029009B6A606A9847A36A606ADB6D984754
:1037A000029B002B03D1A36A606ADB6D9847039BE1
:1037B000002B04D0A36A31009B6A606A98470BB063
:1037C000F0BD03273EE7019E019048E7606A5B6D0C
:1037D000984731002000FEF7F9FEA2E76369E6682A
:1037E0000293638B771C0193238B200063831D4B13
:1037F000E9683343A382F31CE360E782FEF7E6FE49
:10380000A36A606A883301211B689847A36A39005C
:10381000606A9B6A9847A36A606A8C331B68B11C14
:10382000984700222000A968FFF7EAFC20002969D8
:10383000FEF7CCFEA36A3900606A9B6E9847A36AC4
:10384000B11C606A9B6A9847A36A606A90331B68E0
:103850009847029B20006361019B69696383FEF7BF
:10386000B5FEA7E70080FFFFF0B587B004001700A2
:1038700002910393002904D10399FEF7A7FE07B034
:10388000F0BDC668731C0193B31C0493F31C009332
:10389000331DC3601568002D00D1D1E003232A0039
:1038A0001A4005921D4200D0CAE06B68DBB27B2B48
:1038B00000D0C5E0A968FEF789FEA36A606A5B6D67
:1038C0009847F6212000FF31FEF77BFA2000059A89
:1038D000E968FFF795FC022231002000FEF7DCF9D1
:1038E000A36A606A03219B68984702993A1D2000E9
:1038F000039B0139FFF7B8FF0321A36A606A9B6845
:1039000049429847A36A320004330199DD6F606A27
:10391000B31CA847A36A606A5B6D9847A36A606A94
:103920005B6E9847A36A606A1B6E9847FB21A36A87
:1039300000224900606A5B6C9847A36A606A5B6E0C
:103940009847A36A606A5B6E9847A36A606A5B6D7A
:103950009847A36A00220A21606A1B6D9847A36AF0
:10396000606A1B6E9847A36A606A0F211B6B9847B9
:10397000A36A0321C0331D680023606A1A00A847A8
:103980002000FEF706FAA36A009A0021606ADB6E47
:103990009847A36A606ADB6D9847A36A606A0F2143
:1039A0001B6B9847A36A0099606A9B6E9847A36A4D
:1039B000606A02219B689847A36A0499606A9B6ABF
:1039C0009847A36A606A5B6E9847A36A606A5B6EF9
:1039D0009847A36A0199606A9B6A9847FB21A36A8A
:1039E0000022606A5B6C49009847A36A0F21606AF5
:1039F0001B6B9847A36A606A5B6D9847A36A606A0D
:103A00005B6D9847A36A0321C0331D680023606A79
:103A10001A00A8472000FEF7BCF9A36A606ADB6DB4
:103A200098470121A36A606A9B6849429847A36A44
:103A3000606A9B6A009998472000FEF73DF91EE7EF
:103A400029002000FEF7C2FDA36A606A5B6D9847FB
:103A5000F6212000FF31FEF7B4F9A36A606ADB6D3E
:103A6000984738E7F7B5CD6804000E00002D2CD13B
:103A70000378002B17D0036A1D78002D13D17349EA
:103A8000FEF793FDB1682000FEF7A0FDA36A2A00AF
:103A9000BC331E6801212B00606AB047A36A606ACC
:103AA000DB6D984710E0B1688B0707D00F230B4000
:103AB000022B09D12000FEF789FDEFE70029F9D09C
:103AC0004B68DBB23A2BF5D1F7BDAB0750D16B6831
:103AD000DAB25B2A10D1ED68002D49D1006A037873
:103AE000072BF1D1896808330B40022BECD109096F
:103AF000573A17F0F0FBE7E7562A13D1553A896891
:103B0000FFF77EFB2000E968FEF760FDA968A36A65
:103B100009093E399C331B68606AC9B29847022282
:103B2000B16889E0572A23D11B0A5F1E01339B002D
:103B30005959FEF74BFD002F03DDA36A606A5B6DE8
:103B40009847B16800222000FFF75AFB0026BE42CA
:103B5000BADA0136BE4203DAA36A606A5B6D98473F
:103B6000291DB30000222000C958FFF749FBEEE7EA
:103B700003210D4264D16B68FF22180001931040AD
:103B800006285DD1B768002F5AD00F4258D1786807
:103B900003001340062B53D1030A00930098019BA6
:103BA0001B0A83424CD10300023B012B48D8BB685F
:103BB000002B05D00B4203D15B681340222B3FD072
:103BC000FB68002B05D09A0703D15B68DBB2222B80
:103BD00036D0009B022B08D03B69002B05D09A07FA
:103BE00003D15B68DBB2222B2AD02000A968FEF744
:103BF000EDFC2000E968FEF7E9FC009B032B07D1F0
:103C000020002969FEF7E2FCA36A606A5B6E9847B0
:103C1000A36A606A1B6E984700222000B968FFF70C
:103C2000EFFA00222000F968FFF7EAFA009B032B65
:103C300000D049E7002239692000FFF7E1FA43E7A5
:103C400029002000FEF7C2FC002269E70202000002
:103C50000023F7B5C36003003433427001620400EF
:103C60000D0017001A70032A03D1C08E002828D136
:103C7000A0630026A36A39002A001B68606AE686F2
:103C8000984706212000FDF7FFFF6778012F01D13B
:103C90006E84AE84EE68002E17D0B30715D173681A
:103CA000DBB23F2B11D12000B168FEF78FFCA36A75
:103CB000606AC4331B689847A36A606A5B68984768
:103CC000FEBD800006F0C7FCD2E72B783100002B48
:103CD00017D0072B1ED1012F12D10023A37046222B
:103CE0005B4B2000F168FEF73FF92B8B032B07D1CC
:103CF00020003169FEF738FB8301E88A1843E88227
:103D000071692000FEF762FCA36A0F211B6B606AD9
:103D10009847CCE7022B1BD1A36A3168DB68606A45
:103D200098476378012B07D10023A3704C22200011
:103D3000484BB168FEF718F92000F168FEF746FC21
:103D4000EB8ADB07B3D5A36A606ADB6D9847DBE7D4
:103D5000033B032B4FD8F3680193012F05D10422B5
:103D60003900206A17F0B7FA6F83A36A3168DB68FD
:103D7000606A98472B78032B24D10122A36AA033D1
:103D80001B680021606A98472B78062B28D1A36A0C
:103D9000606A1B6C984701212000FEF706FCA36AAD
:103DA000606A1B6C9847A36A606A1B6C9847002383
:103DB0002000B2680199FFF7FDFA2B78062B00D09E
:103DC00075E7A1E7042B04D1A36A0222A0331B6884
:103DD000D7E7052BD8D1A36A0322A0331B68D0E70D
:103DE00020000121FEF7E1FBA36A012188331B6853
:103DF000606A9847DBE7012F04D104220A212800DA
:103E000017F069FA17212000FEF7CFFB16212000DA
:103E1000FFF7E4F9B168A36A606A9B6B09099847E8
:103E20001A212000FFF7DAF920003169FEF7CEFBF6
:103E30000A21280017F03FFA0278A36A042A00D169
:103E400063E742881D690A210023606AA8472EE7BC
:103E5000712500107D25001010B5036A04001A8B2F
:103E6000FEF7E4F801002000FFF7B8F910BD0000EC
:103E7000F0B58D6804006B6885B0DBB2032B09D107
:103E80002900FFF7E9FF0123AA69D18A0B43D382F6
:103E900005B0F0BD0121026AD28A0A4204D129008C
:103EA0005B4AFEF7EDF8F3E7162B00D0A2E0C668F8
:103EB000E968331DC360FEF789FBF821A36A606AD5
:103EC00000225B6CFF319847A36A606AC0331F68A9
:103ED00000231A001900B8476369E7680193638BF0
:103EE000606A0093BB1CE3607B1CE382238B791C1C
:103EF0006383A36AA7829B6A984701222000B118B6
:103F0000FDF7CAFEA36A606A5B6D9847FC2120003A
:103F10004900FDF756FF2000A9680022FFF770F95D
:103F2000A36A00229433606AB11C1B689847A36A95
:103F3000711C606A9B6A9847A36A606AD0331B68E9
:103F40009847A36A606A5B6D9847D621A36A0122ED
:103F5000606A5B69FF319847A36A606A9C330821F5
:103F60001B689847A36AF21C0021606ADB6E9847C1
:103F7000A36A606ADB6D9847A36A0122943331001B
:103F8000606A1B689847A36A606AF11C9B6A98473D
:103F9000A36A01219B68606A98472000FDF78CFEA8
:103FA000A36A606AD4331B689847A36A606A9B6AF5
:103FB000B11C984720002969FEF708FBA36A606AD4
:103FC000791C9B6E9847019B31006361009B606A7E
:103FD0006383A36A9B6A984720006969FEF7F6FA33
:103FE000A36A606A39009B6A9847A36A606ADB6DBE
:103FF00098474DE7280003AA7A21083014F0E2FA26
:10400000EB680100039A2000FFF72EFC40E7C04652
:10401000F3420710F0B504000F00C56887B01E001A
:104020006B1C0593AB1CC360290004920122FDF7B1
:1040300033FE39002000FEF7C9FAA36A0022943348
:104040001B68606A691C9847A36A29009B6A606ABA
:104050009847A36A606AD0331B689847E368019663
:1040600002930133E36000230093009B049A934280
:1040700016DB2000FDF720FEA36A606AD4331B68BC
:104080009847A36A05999B6A606A984720000C9933
:10409000FEF79CFAA36A02999B6A606A984735E02A
:1040A000019B1F68E368BE6803930133E360009BD4
:1040B00001330093002E2BD1049B009A93421CD114
:1040C000A36A606ADB6D98472000F968FEF77EFA04
:1040D000A36A012294331B680299606A9847A36A15
:1040E00003999B6A606A9847A36A01219B68606A8A
:1040F0009847019B04330193B7E7019B2000324AA4
:104100001968FDF7BDFF2000FDF7D6FD07B0F0BD33
:104110000325032335401E4253D173683200DBB2BE
:10412000762B02D1D568B6682D09A36A606A5B6DEB
:10413000984731002000FEF749FAA36A08219C3312
:104140001B68606A9847A36A0021DB6E039A606A65
:104150009847002DB4D029002000FFF73FF8E6680B
:104160000222731CE36031002000FDF795FD200062
:10417000F968FEF72BFAA36A606A0F211B6B984758
:10418000A36A3100606A9B6A9847A36A606A01214A
:104190009B689847A36A606A1B6B0F2198472900A8
:1041A0002000FFF71BF829002000FEF7EDF90121A0
:1041B000A36A606A9B68494298472000FDF77CFD2E
:1041C00086E70025B1E7C04619430710F0B5C76878
:1041D00085B003937B1C16000D0002223900C360DA
:1041E0000400FDF759FD002E2CD1A36A03219B6822
:1041F000606A984729002000FEF7E8F90321A36AC6
:10420000606A9B6849429847A36A606A0F211B6BEA
:104210009847A36A3900606A9B6A9847A36A606AF4
:104220009B680121984720000B99FEF7CFF90121E7
:10423000A36A606A9B68494298472000FDF73CFDED
:1042400005B0F0BD0A9B3200009329002000039BBB
:10425000FFF7E0FED8E77FB5CE68050073680C0075
:10426000DBB2782B09D10022B368009201931300CE
:104270002800A168FFF7AAFF7FBD742B17D130007B
:1042800003AA7721083014F09DF933690200002B4E
:1042900007D1F36800932800039BA168FFF7BAFEDB
:1042A000EAE79B680193F3680093039BE0E708004B
:1042B00003AA77210C3014F085F900230200E9E706
:1042C0000F2370B50B4004000D001600022B02D026
:1042D0001D4AFDF7D5FE31002000FEF777F9A36AED
:1042E000606A5B6D984763782E09012B0FD1226AB3
:1042F0001378033B032B0AD85068310001F0ADFA64
:104300000278032A08D13100206A16F0E4FF310058
:104310002000FEF763FF70BD00223100206A16F016
:10432000DAFF236A02005B6859684B424B41DBB2FB
:10433000002904D01178012901D100211170290030
:104340002000FEF731F8E2E7BE420710F0B589B071
:10435000059104920400A42107AA05A800271E00C5
:1043600014F030F90297039000970197039B9F4246
:1043700014D1009B002B04D0A36A02995B6B606A86
:104380009847049AA36A606A002A00D178E0C03393
:104390001C683100009B019AA04715E0079BBA00FA
:1043A000D558002D5FD003231D425CD1FF216B68DF
:1043B0000B40A62B1BD10222009B134206D0314A90
:1043C00029002000FDF75CFE09B0F0BD1D2F01D9CA
:1043D0002D4AF5E70123009AA9681A43BB400092D1
:1043E000029A1A4302922000FEF7F0F823E0A72B6E
:1043F00010D1009AA53B1A43A36A606A1B6C009215
:104400009847A9682000FEF7E1F8019B013301936A
:104410000137ABE7A82B26D1EA68002A0FD0A53BCD
:104420001A420CD153680B40AA2B06D12000926887
:10443000A968FFF745FF0136EAE7AC2B0DD00F2343
:10444000A9680B40022B01D0104AB9E7A36A0909F9
:104450009B6B606A9847E968D4E706222900200030
:10446000FEF788F9E7E70222009B134201D0084AD1
:10447000A6E7019B002B01D0064AA1E72900B2E77D
:10448000BC3385E7374307104643071054430710F2
:10449000754307108D43071070B50D004178040077
:1044A0001300012903D12A00FDF7AEFC6861A36A5D
:1044B000606A9B6C984700236E691A0031002000E7
:1044C000FDF709FCA36AB18A9B6B606A9847E968AB
:1044D000002909D003230A001A40194204D14B686D
:1044E000DBB2A32B00D11100200002230022FFF732
:1044F0002DFFB08A70BD002310B51A008968FFF740
:1045000025FF10BDF7B50D0089680400FEF75EF8C1
:10451000EE68002E2DD07368DAB28E2A2AD02E00D3
:1045200001230C3600930F22216AAB68097800251D
:104530001A40072900D078E0022A4ED11A099A2A97
:1045400000D074E032685368DBB2302B45D19368F9
:10455000AB4242D103312000FEF727F80121226A45
:10456000D36A128D002A09D12000474A3168FDF72D
:1045700087FDF7BD1B0A00930836D4E75878084238
:1045800010D059682000FEF710F8009AA36A022A9A
:104590000BD8BC331D68002302211A00606AA847AB
:1045A00001251AE0013A0833DCE7FF2071684A6808
:1045B0000240322AEDD1B5686A680240302AE8D15B
:1045C00089685B6C606A09092F3A9847A9680023DB
:1045D00001222000FFF7BAFE0325009BAB42C8D999
:1045E0006B1C009801936A1CAB00F158824245D2C3
:1045F000FF204A680240322A40D1F3185F687B6886
:104600000340302B3AD18968A36A00225B6C606A50
:1046100009099847002301222000B968FFF796FE98
:10462000019D0135D9E70025D7E7022AD5D19E2281
:10463000FF3200251B099342CFD131689E3A4B6867
:104640001340302BC9D18B68AB42C6D003211D006B
:104650000D400B42E7D15B6813402F2BBDD1A36AFD
:104660002A00BC3329001F68606A2B00B8473368F2
:104670002A0020009968FEF709F991E72000FDF76C
:10468000A5FF0195CCE7C046AE430710036A10B5FD
:104690001B780400072B05D0022B03D0054AFDF739
:1046A000EFFC10BD2000FFF72DFF2000FDF771FB90
:1046B000F7E7C046C643071010B5CA688968FFF718
:1046C000FFFD10BD10B5036A04001A8BFFF7E4FE6E
:1046D00001002000FEF782FD10BD0000F0B50400CF
:1046E000080089B005910830422106AA13F06AFF3C
:1046F0000027236A03901E8B0297039B9F420BD1D6
:10470000059BD9684B68DBB2032B52D132002000E5
:10471000FDF78CFC05005AE0069BBA00D3586C21CB
:10472000180007AA0830049313F04CFF079B0500FC
:1047300019680A09732A0FD02000FDF747FF0123EB
:104740000193019BAB4227D3049BD96800291FD05A
:104750002000FDF73BFF1BE0022805D02000294A7E
:10476000FDF78EFC35000FE059680B09412B11D085
:10477000D7229200934207D0234A0325934203D0C5
:10478000224A01359342E9D12E00029B0133029364
:104790000137B2E70125F7E7019A079B9200D1584C
:1047A000A36A00221B6D606A09099847019B0133C7
:1047B000C6E7442B17D18F68320039002000FDF77F
:1047C00035FC01230500BA69D18A0B43D382002648
:1047D000039B029A9B1AB3420AD829002000FEF7D5
:1047E000FDFC09B0F0BD32002000FFF755FE91E757
:1047F000A36A0121BC331F680023606A1A00B8470E
:104800000136E5E7DF430710410400002E020000F7
:104810000F23F0B58E6804000D0085B033400A2BDD
:104820000BD000218E4216D00323310019401E42C6
:104830002ED17368DBB2652B1CD102960026652150
:1048400003AA02A813F0BEFE0021039B80003F4A8A
:10485000C018834214D13E4BEA689A4236D1236A8B
:104860001F78002F16D0290020003A4AFDF708FCD7
:1048700005B0F0BD622BEED1B3680293F668DEE7B7
:104880001F68974202D101310433E2E70331FBE7AD
:104890000021E0E7A36A606A5B6B9847A36A606ADD
:1048A00005219B6B9847A36A3A00A0331B68606A96
:1048B000012198473100200003AAFDF7BBFAA36A43
:1048C00002223900DB6A606A9847D1E7A36A606A0E
:1048D0005B6B984728006A210C3002AA13F072FE25
:1048E00000270500A36A606AAF4211D1A0330022FD
:1048F00029001B6898473100200003AAFDF79AFAA7
:104900000026A36A606AAE420BD1DB6D9847AFE721
:10491000029AB9008A589B6B916801370909984738
:10492000E0E7029AB1008F58DB6ABA681209019277
:10493000019901229847F968002905D101992000C1
:10494000FEF74CFC0136DCE70909F8E7CA05000070
:104950001A040000FD43071037B504000D00836AF8
:1049600000215B6B406A9847A36A606A1B6B0F214A
:1049700098472900200001AAFDF75CFA2000019960
:10498000FEF72CFC37BD0000F0B5A1B0069010205A
:104990001400079105F040FED02212061268BB4BAE
:1049A0009200D35800211B695822436007000AA8CF
:1049B0006BF01EFC0AAB1C70012301215B4219A89D
:1049C0000F9305F08BFE0221079B0122DB001943A8
:1049D00019A805F0BDFE0123002143601CA80EF0BC
:1049E000ABF88A22AA4B92009B5C069A00211268BF
:1049F0000AA8FDF709FA019017A800F0B1FEA54B2F
:104A0000119C14930023039013900293002C02D066
:104A10000B9D002D1ED0119C002C02D00B9B002B57
:104A200037D000250299039800F0A1FE119C0B9E3F
:104A3000002C00D134E1002E00D1DEE0129C0AA847
:104A4000E168FDF787FA3000A38A0C9A07990CF009
:104A500089FB28E1238B012221000AA8042B08D11D
:104A6000FDF720FB0D9B029A9A4200D20293A468A4
:104A7000CCE7FFF7EDF8238D9D42F3D2E26AEB001D
:104A8000D118D35C012B02D1200016F04EFC013569
:104A9000F1E70421E28A0A4215D0218D01394A1C2E
:104AA00011D00225E26AC80012185078284225D099
:104AB000002B08D0596815008C46186842CD42C3B7
:104AC00063461060536000252584238D04939D4226
:104AD0001ADB00230120049A9A4244D16568002D14
:104AE0000AD000222B8D0993130009998A4249DBD1
:104AF00000220125934275D1A4688DE7002BCDD10A
:104B00000128CBD11300C9E7E66AEB00F618237839
:104B1000012B04D173680A2B10D10135D5E7327807
:104B2000012B0BD9012A09D103233370238B032BCB
:104B300013D01022E38A1343E38202E03378032B7D
:104B4000F4D03378042B03D0012273781342E4D0DD
:104B5000238C5A1C22847380DFE7706809F0ECFF15
:104B60000128EEDCE5E7E16ADA008D188A5C052AA7
:104B700006D16A78024203D1228C6A8001322284F3
:104B80000133A8E7E86AD1004618415C0896053968
:104B9000012918D8002111E00599E66AC8003118EA
:104BA000305C8C46062807D108994E6861464868F3
:104BB000864201D14B800133059901310591059859
:104BC00004998142E8D101328FE7E06AD1004618AA
:104BD000415C062902D17178294202D07188C91836
:104BE0007180013204999142EFD1628B9BB29A1885
:104BF0006283228C9B1823847EE7238B042B19D19C
:104C0000159B002B03D1029801F09CFA159000230C
:104C10001393214B032221000AA81693FDF742FAB1
:104C20000B9B002B04D1042221000AA8FDF73AFABD
:104C3000A468FCE6023B012B23D8002D06D1029B81
:104C40000DAA0BA917A803F099FF0500134B1395A4
:104C50001493022221000AA8FEF7FAFF0B9B002BF7
:104C6000E6D1032221000AA8FEF7F2FF0B9B002BDE
:104C7000DED1042221000AA8FEF7EAFF0028F8D0BE
:104C8000D6E7039B1393034B1493E2E778200020AD
:104C90006C4F00201C45071088470710904A0710EA
:104CA000002E00D0CAE6019B0B9E1B690293002ECA
:104CB00019D0039800F063FD002D3FD1159800280E
:104CC00001D001F054FA069813F080FE0198836831
:104CD000019316F0E7FA019B002BF7D10B980028FF
:104CE00030D009F0B7FF199C1E9BE4086400033420
:104CF000A008C018800005F08FFC03239C43041912
:104D0000FC601B991A9CB860A6420AD100231E9928
:104D10008B42CED01F989A008458F8680133845093
:104D2000F6E70A68002A06D0042A04D04B68D208A5
:104D30005B105B001A5201360831E5E7280003F0EA
:104D40003DFFBBE73900019A029800F0DBFD21B07E
:104D5000F0BDC046D02212061268044B9200D35810
:104D600082B0186801ABC01A02B0704778200020EA
:104D700010B5FFF7EFFFD02212061268044B920025
:104D8000D3585B68984201D316F02CF910BDC04689
:104D9000782000204379012B07D08368C918036964
:104DA00081605A8C914200DD5984704700238371E1
:104DB0004379012B03D0C26A036A8900CA50704745
:104DC000042110B54942FFF7E5FF10BD10B50421DD
:104DD000FFF7E0FF10BD032110B54942FFF7DAFFEE
:104DE00010BD426A030040795118032802D8180008
:104DF00059627047586B8018FAE782790300002ADD
:104E000001D018007047C26A40795118032801D8B0
:104E1000D962F6E7986AD9621218586B8018F1E7E0
:104E200010B50C000121FFF7E8FF047010BD70B54C
:104E300004001500FFF7AEFF01212000FFF7DDFFA2
:104E4000057070BD10B553220121FFF7F0FF10BDB2
:104E500010B554220121FFF7EAFF10BD10B557220B
:104E60000121FFF7E4FF10BD10B558220221FFF722
:104E7000DEFF10BD012110B559224942FFF7D7FFCF
:104E800010BD10B55A220021FFF7D1FF10BD10B59B
:104E90005B220021FFF7CBFF10BD012110B55D2281
:104EA0004942FFF7C4FF10BD5E2210B5002901D0B2
:104EB00003210132FFF7BBFF10BD10B53039CAB274
:104EC0000021FFF7B4FF10BD022110B56222494254
:104ED000FFF7ADFF10BD012110B563224942040068
:104EE000FFF7A5FF0123A37110BD0A00643210B5BE
:104EF000D2B249420400FFF79AFF0123A37110BD0B
:104F00000A0010B504006732D2B24942FFF78FFFA2
:104F100001232269D18A0B43D38210BD70B51D00D5
:104F20000400FFF784FF2A0020000249FBF7F0FD90
:104F300070BDC046FB4D001070B50D000400190097
:104F4000C068160000F058FC320003002900200061
:104F5000FFF7E4FF70BD10B50B0010220121FFF731
:104F6000EBFF10BD10B511320B000121D2B2FFF7DB
:104F7000E3FF10BD10B514000B00012164001432D2
:104F8000D2B2091BFFF7D8FF10BD0B00012110B5ED
:104F90001632D2B24942FFF7CFFF10BD10B5193219
:104FA0000B000021D2B2FFF7C7FF10BDF8B5C468EF
:104FB0001D0026786388042E02D166689F00BD51CB
:104FC0005D1C6580FFF7AAFFF8BD110010B52833FE
:104FD000DAB20B000021FFF7A1FF10BD10B50124CC
:104FE0000B002100022A00D0E11A2A32D2B2FFF7C8
:104FF00095FF10BD70B500242500032903D00429B6
:1050000009D101342500A3189B002B43E1432F2233
:10501000FFF784FF70BD00240225F4E710B50B00F4
:1050200030220139FFF77AFF10BD10B513020B4390
:1050300089183122FFF772FF10BDF8B5050017007F
:105040001C00FFF7A7FEAE79002E43D16B79022B2F
:1050500018D803212800FFF7D0FE34000770442F32
:1050600023D96B79042B06D180231B029C4202D3E7
:10507000012338352B7080235B422343E4114370B6
:10508000847027E0A30002242A6AE96A9B586442DC
:10509000641AE418442F1ED82300403309DA032190
:1050A0002800FFF7AAFE013C07708023DB01E4180B
:1050B000D7E701233F2C00DC33001E002800B11C81
:1050C000FFF79BFEA41B0770002EC8D1442F00D809
:1050D00040344470F8BD7F26A642B6417642EDE7E3
:1050E00010B50B00422200210400FFF7A6FF0123A8
:1050F000A37110BDF8B5174F05000C0016000F4046
:10510000002A19D124040ED55921FFF789FE59210F
:105110002800FFF785FE59212800FFF781FE59215D
:105120002800FFF77DFE3B00422200212800FFF708
:1051300084FF0123AB71F8BD3B0040220021FFF743
:105140007CFF7F23210A994331432800C9B2FFF72E
:1051500067FEEEE7FF7FFFFF10B514000B00614212
:105160004C414732D2B26100FFF767FF10BD10B566
:105170000B004B220121FFF760FF10BD10B50B00A3
:105180004A2200210400FFF758FF0123A37110BD3C
:10519000F7B58922234B92009B5805000191022B01
:1051A0000DD88769B9420AD9C46A4269CF1BA41ACB
:1051B0003B00234304D1EB6A6B61019BAB61F7BDFC
:1051C000062F01D90F2C18D900941F2C01D91F23A9
:1051D0000093009B00269C4203D83E00032F00D979
:1051E000032601212800FFF7FCFD009A73011343F9
:1051F0000370009BBF1BE41ADAE780233E001B010B
:105200009F4200D3084E02212800FFF7EAFD7022DA
:10521000330913402343F03A13430370467000945C
:10522000E7E7C0466C4F0020FF07000010B5040000
:10523000002905D1552201392000FFF7F8FD10BDE6
:10524000022904D1FFF7FEFD2000FFF720FE032115
:1052500056224942F0E7130010B54322002900D13D
:10526000442201214942FFF7E8FE10BD130010B5AA
:105270004522002900D1462201214942FFF7DDFEE7
:1052800010BD10B5040032290AD1DD2233392000C7
:10529000FFF7CDFDD32200212000FFF7C8FD10BD90
:1052A000332902D1DE223439F1E72939CAB201218A
:1052B0004942F1E70B0010B5012A07D0022A0BD1B1
:1052C000012167324942FFF7B2FD10BD11001B32C8
:1052D000D2B2FFF731FEF8E701214942F7E770B596
:1052E0000D000400111E05D12B0013222000FFF732
:1052F00023FE70BD022A04D1FFF7A4FD2000FFF7B2
:10530000C0FD02212B0018224942EFE7110010B521
:10531000002B07D10F2A05D85039CAB20121FFF757
:1053200086FD10BD2433DAB20B000121FFF7F6FD34
:10533000F7E7110010B5002B08D10F2A06D8403925
:10534000CAB201214942FFF772FD10BD2633DAB21D
:105350000B0001214942FFF7E1FDF6E770B5049D1E
:10536000D2B26C002D02E4182B43059D002D02D013
:105370000132D2B20134091BFFF7D0FD70BD07B571
:10538000019300920B0034220021FFF7E7FF07BDD5
:1053900013B50124019300920B0036226142FFF7FE
:1053A000DDFF13BD10B50400C06800F03CFA2322F5
:1053B000030001212000FFF7B1FD10BD0B001033E9
:1053C000F7B506000D003F2B05D8803D0121EAB25C
:1053D000FFF72DFDF7BD01212222FFF728FD6B46C7
:1053E0005C1D21007F202F0022000740EBB2013C12
:1053F000ED1127706F1C012FF5D840273B40013578
:1054000014D1002B02D1013C2070941E3000091BE6
:10541000FFF7F3FC80260200230001AD7642AB4289
:105420000AD16A4612791B1BC254D3E7002BEDD078
:105430000023013C2370E8E71978013331431170F0
:105440000132ECE770B5040018000B690499D5B27D
:1054500008430AD10121891A20222000FFF7A6FD66
:1054600029002000FFF7DCFC70BDD1432122F4E7C6
:1054700010B51C000B69224304D101213232FFF721
:1054800095FD10BD012133224942F8E710B5040013
:105490000D290AD10849C06800F0C5F9232203008C
:1054A00001212000FFF73AFD10BD4231CAB20121AF
:1054B000FFF7BDFCF8E7C0466477071070B504003D
:1054C0000D000F21FFF7E2FF29002000FFF76EFC1F
:1054D0005C2220000221FFF7AAFC0421200049429F
:1054E000FFF758FC70BDF8B504000F0016001D0052
:1054F0000F21FFF7CBFF2000FFF7C3FC390020008E
:10550000FFF7EEFD31002000FFF750FC2000FFF711
:10551000A5FC012220002121FFF724FD2000082105
:10552000FFF7AFFE2A0000212000FFF794FEF8BD30
:1055300070B543790400012B14D00025C26B436A77
:1055400005649B1AC3632069038DAB420CD8637951
:10555000032B1AD1606AE36AA0622363C01805F0C6
:105560007AF86063012070BDC26AEB00D118D35C89
:10557000052B08D18E7820000121FFF732FC067040
:10558000236C013323640135DDE7042BEAD1626A21
:10559000A16AE36A8A4202D1216B994203D00020BA
:1055A000A2622363DFE7230038331B78002B03D08C
:1055B0000549064814F0CCFCE268C38A5268616B66
:1055C000006900F083F9CDE708450710D868071097
:1055D000F0B541710100002302611700012238314A
:1055E0008360837143618261C36243620B703B8C51
:1055F000798C06005B1887B0002B00D113000F22B6
:10560000F88AB98C10400390BA8B7D8B0492FA8B88
:105610007820059204228C001440013A2A40013B74
:105620001443DA001B09024001934B081443029310
:10563000AD08029A019B01211343039A30001343E2
:10564000049A2B431343059A134330D1FFF7C9FB48
:1056500004707379022B14D9336CF56B01937E239C
:1056600001226C001C40019BAD0913401C43019BAF
:10567000D34001932B434CD111003000FFF7B1FB15
:105680000470736AF068F363B98A00F0B5F8334DBB
:10569000020029003000FBF73BFA00247B8BBA8B19
:1056A0009B18A34258DD3B8D00229C4650E0FFF73B
:1056B00098FB80235B421C43039B04709C014023A6
:1056C00030221C40019B1B0113401C430123059AFF
:1056D000134008221C43049BDB0013401C43043A84
:1056E000AB0013401C43029B023A5B0013401C4377
:1056F000019B6D08D3400193029B5B080293039BBF
:105700005B080393049B5B080493059B5B0805936C
:105710008FE701213000FFF764FB80235B422343C6
:1057200003709CE70120FB6AD1005B1859780142A5
:105730000DD05988A1420AD15968F06800F05CF890
:10574000290002003000FBF7E3F90134A6E701323B
:105750009445E7DC0521F0E707B0F0BDE34D00100C
:1057600010B50400442004F076FFC46010BD10B5ED
:105770000400C161880004F04FFF206210BD10B525
:105780000400006A04F07CFF200004F079FF10BDE3
:10579000F8B504000D00884201D10120F8BD144B7A
:1057A000984201D10020F9E79942FBD009F088FA2C
:1057B0000600280009F084FA8642F3D10D4B9E4280
:1057C00011D162686B689A42ECD1082600276368A1
:1057D000BB42E2D9A959A059FFF7DAFF04360028E5
:1057E000E0D00137F3E72900200009F021FDD5E7DB
:1057F000B05E0710A0800710CB00022110B519433E
:1058000004000122083004F0A3FF4368002B06D1F6
:105810000122A368DB08013B5B001343436040683F
:10582000401080B210BD70B505000E000024EB6979
:10583000A34208D82800310014300DF029F8EC6993
:10584000013C200070BD2A6AA30031009858FFF780
:105850009FFF0028F5D10134E9E710B501220400CB
:1058600015F039FD0378012B04D12378012B02D9DF
:105870000423037010BD0223FBE770B505000E0082
:10588000100019001C0015F016FD03785A1E012A9D
:1058900005D80022736821002800984770BD032BAB
:1058A00002D101227368F6E736684288042B04D1DE
:1058B000002321002800B047F0E70123F9E710B5E5
:1058C000102004F0C8FE0123837010BD10B502241F
:1058D0008470013C2340C3704160826010BD8170C0
:1058E000012110B502AB10CB42601B8884600B40D5
:1058F000C370049B0373059B1A02C368DBB2134396
:10590000C36010BDF8B504006378100022781B0254
:105910000D00134317D0002700230A0021000CF0CC
:105920007FF80125390023785BB27E1C002B03DB56
:10593000294225D01D4B19E0A35D9A112A40BA4097
:1059400037001143F0E7A3786668042B10D0052BCD
:1059500017D0032B20D10A00A36831000CF060F8A7
:10596000134B0360E378002B0AD0124B036007E06F
:1059700010201149A46809F096F9C660456084605A
:10598000F8BD10200D49257BE46809F08CF9240A44
:1059900045608660C460F3E70A00A36831000CF03C
:1059A0003FF8E378002BEBD0C4E7C046706E0710D9
:1059B000786C0710546E0710606C0710486C071065
:1059C00070B51D00802314005B001A401C4200D0FB
:1059D0002A00FFF797FF0223E2091A409A40E1B23A
:1059E000AA180AF04DFA70BD0F2370B513400400D9
:1059F000022B09D00D4B0A0019000D480BF072FB69
:105A0000636A1860002070BD836A00201209834217
:105A100005D1238C042BF5D106490548EEE7E16A50
:105A2000850069589142EED00130F0E7F445071047
:105A300090680710094607107FB504000D0010009C
:105A400003A91E0012F036FB002809D12A000B49D9
:105A50000B480BF047FB636A1860002004B070BD70
:105A6000039809F0F5F902000300B243F6D02A00CA
:105A70000449009602480BF035FBECE7204607107E
:105A8000906807103846071070B5038CC46A032B62
:105A900003D10023856A9D4205D18B00E250FAF7BD
:105AA00020FD012070BD9E00A659964201D0013311
:105AB000F1E70020F6E710B5FAF774FD10BD10B558
:105AC00004000184426203290ED1826A0021C06A67
:105AD00092006AF08DFB01212000FAF7DAFC002128
